S00E0000636F64655F312E73726563EB
S11300000C942A000C9447000C9447000C9447006D
S11300100C9447000C9447000C9447000C94470040
S11300200C9447000C9447000C9447000C94470030
S11300300C9447000C9447000C9447000C94470020
S11300400C9447000C9447000C9447000C94470010
S11300500C94470011241FBECFE5D8E0DEBFCDBF0E
S113006012E0A0E6B0E0E4ECF4E102C005900D92E9
S1130070A033B107D9F722E0A0E3B2E001C01D929A
S1130080AF34B207E1F70E94A8070C94600A0C94FD
S1130090000090BD89B988E18AB98EE880BD0895D1
S11300A05D9BFECF8CB9089598E094BB92B39F7387
S11300B092BB92B3917F92BB982F907F95BB92B3E2
S11300C0906892BBEFE9FFE03197F1F700C00000C0
S11300D092B39F7792BB8295807F85BB82B3806801
S11300E082BB8FE99FE00197F1F700C0000082B363
S11300F08F7782BB089592B3906C92BB92B3917F39
S113010092BB982F907F95BB92B3906892BBEFE916
S1130110FFE03197F1F700C0000092B39F7792BBE4
S11301208295807F85BB82B3806882BB8FE99FE024
S11301300197F1F700C0000082B38F7782BB089566
S113014080EF84BB81B3806881BB8FEF81BB82B3B6
S11301508F7782BB83E30E94540082E30E945400A1
S113016088E20E9454008EE00E94540081E00E94C4
S113017054008FE39FE10197F1F700C00000089558
S11301800F931F93CF93DF938C01C0E0D0E003C0A3
S11301900E947B002196F801EC0FFD1F80818111E4
S11301A0F7CFDF91CF911F910F91089581E00E94C5
S11301B054008FE39FE10197F1F700C0000080E84D
S11301C00E9454000895CF93DF93CDB7DEB76897AC
S11301D00FB6F894DEBF0FBECDBF88E0E8E5F1E0CE
S11301E0DE01119601900D928A95E1F780E1E0E637
S11301F0F1E0DE01199601900D928A95E1F780E015
S113020090E080C0FC01EE0FFF1F21E030E02C0FD6
S11302103D1FE20FF31F208128BBB49918C0EFE7FC
S1130220FBEB3197F1F700C000008330910519F41E
S11302300E94D6006BC0880F991F880F991FE1E0B8
S1130240F0E0EC0FFD1FE80FF91F80855FC0B59942
S113025012C0EFE7FBEB3197F1F700C00000880F05
S1130260991F880F991FE1E0F0E0EC0FFD1FE80FE4
S1130270F91F81854BC0B69919C0EFE7FBEB3197A5
S1130280F1F700C000008330910521F480E10E9461
S113029054003CC0880F991F880F991FE1E0F0E0DB
S11302A0EC0FFD1FE80FF91F828530C0B79929C0F4
S11302B0EFE7FBEB3197F1F700C00000009721F462
S11302C080E80E94540022C08130910521F480EC22
S11302D00E9454001BC08230910561F4880F991F5D
S11302E0880F991FE1E0F0E0EC0FFD1FE80FF91F04
S11302F083850CC08330910521F484E10E9454006D
S113030005C00196843091050CF47CCF68960FB635
S1130310F894DEBF0FBECDBFDF91CF910895CF9388
S113032080EF88BB86B3803FD9F30E94E300C82FD7
S11303300E947B00C136A1F38C2FCF910895CF92F8
S1130340DF92EF92FF9210923902109238021092CB
S1130350370280E033C092B3906292BB95E39A95E2
S1130360F1F70000849B11C047E050E0481B51099D
S113037021E030E002C0220F331F4A95E2F790914A
S11303803902292B2093390211C047E050E0481B61
S1130390510921E030E002C0220F331F4A95E2F7F1
S11303A020959091390229232093390292B39F7D9D
S11303B092BB9AE19A95F1F700C08F5F883058F2AA
S11303C080E03EC092B3906292BB95E39A95F1F7B8
S11303D00000849B16C04FE050E0481B510921E007
S11303E030E002C0220F331F4A95E2F740913702F2
S11303F050913802242B352B309338022093370246
S113040017C04FE050E0481B510921E030E002C022
S1130410220F331F4A95E2F7209530954091370219
S11304205091380224233523309338022093370225
S113043092B39F7D92BB9AE19A95F1F700C08F5FCA
S1130440803108F4BFCF809137029091380296959D
S1130450879590933802809337026091390260FF48
S113046005C0906890933802809337026695609334
S1130470390270E080E090E00E94090924E632EA43
S113048048E650E40E94BE096B017C01609137028A
S11304907091380280E090E00E94070923E33BED6D
S11304A04CE856E40E945F089B01AC01C701B60109
S11304B00E94EE07FF90EF90DF90CF900895CF92C7
S11304C0DF92EF92FF921092360210923502109250
S11304D0340280E033C09BB394609BBB95E39A9550
S11304E0F1F70000C89B11C047E050E0481B5109D8
S11304F021E030E002C0220F331F4A95E2F79091C9
S11305003602292B2093360211C047E050E0481BE5
S1130510510921E030E002C0220F331F4A95E2F76F
S11305202095909136022923209336029BB39B7F1A
S11305309BBB9AE19A95F1F700C08F5F883058F21F
S113054080E03EC09BB394609BBB95E39A95F1F722
S11305500000C89B16C04FE050E0481B510921E041
S113056030E002C0220F331F4A95E2F74091340273
S113057050913502242B352B3093350220933402CD
S113058017C04FE050E0481B510921E030E002C0A1
S1130590220F331F4A95E2F720953095409134029B
S11305A050913502242335233093350220933402AD
S11305B09BB39B7F9BBB9AE19A95F1F700C08F5F39
S11305C0803108F4BFCF8091340290913502969522
S11305D0879590933502809334026091360260FFD0
S11305E005C09068909335028093340266956093B9
S11305F0360270E080E090E00E94090924E632EAC5
S113060048E650E40E94BE096B017C01609134020B
S11306107091350280E090E00E94070923E33BEDEE
S11306204CE856E40E945F089B01AC01C701B60187
S11306300E94EE07FF90EF90DF90CF90089581B372
S1130640846081BB089582B3846082BB80E58A950F
S1130650F1F782B38B7F82BB089580E090E0DC01E8
S113066005C083990AC00196A11DB11D803C27E2F3
S1130670920729E0A207B105A0F3803C9742A94064
S1130680B10579F11FBC82E08EBD1DBC1CBC80E0AD
S113069090E0DC010AC0839B0FC02CB53DB5213628
S11306A03A4E50F40196A11DB11D803C27E29207F9
S11306B029E0A207B10578F3803C9742A940B1052F
S11306C099F08CB59DB5A0E0B0E01EBC81362AEE51
S11306D09207A105B10558F4B695A7959795879506
S11306E008958FEF9FEF08958EEF9FEF08958EEF9B
S11306F09FEF089517BA2FEF31EE44E021503040B8
S11307004040E1F700C000000E941F030E94230341
S11307100E942D03BC0180E090E00E94070926E9B5
S113072033E44BE05DE30E94BE0920E030E040E0AA
S11307305FE30E94BE0920E030E040E85FE30E94EE
S1130740EE070E94D1082FEF36E741E021503040F8
S11307504040E1F700C00000072E000C880B990B05
S11307600E94090908954F925F926F927F928F922F
S11307709F92AF92BF92CF92DF92EF92FF920F932C
S11307801F93CF93DF93CDB7DEB76E970FB6F89470
S1130790DEBF0FBECDBF8AE0E0E7F1E0DE011196D7
S11307A001900D928A95E1F784E1EAE7F1E0DE0138
S11307B01B9601900D928A95E1F70E94D6008EE86F
S11307C091E00E94C00080EC0E9454008AE991E00C
S11307D00E94C0000E948F01D82E0E948F0120E049
S11307E030E023C0E1E0F0E0EC0FFD1FE20FF31F67
S11307F09081D9120BC0F901EE0FFF1F41E050E0C8
S11308004C0F5D1FE40FF51F0285138589130BC080
S1130810F901EE0FFF1F41E050E04C0F5D1FE40FA4
S1130820F51FE284F3842F5F3F4F2A303105D4F261
S1130830C801880F991F880F991F880F991F680195
S1130840CC0CDD1CC80ED91ECE0CDF1C0E948F01FF
S11308508D32E1F751E1C516D1040CF0AECF0E9400
S1130860D60082EA91E00E94C00080EC0E9454000D
S113087083EB91E00E94C0000E948F018D32E1F76A
S11308800E94D6008BEB91E00E94C0008FE39CE9AC
S11308900197F1F700C0000081E40E9450009FEF2F
S11308A024E34CE0915020404040E1F700C00000B8
S11308B00E949F0160934B0270934C0280934D02FF
S11308C090934E020E94D60051E0C51AD108F60159
S11308D0EE0FFF1FEC0DFD1DEE0FFF1FEE0FFF1FB0
S11308E0E856FF4F40845184628473842AE037EDD4
S11308F043E25CE3C301B2010E94ED0780904B0226
S113090090904C02A0904D02B0904E02A50194012B
S11309100E94B909882384F42AE037ED43E25CE3BA
S1130920C301B2010E94EE079B01AC01C501B401F1
S11309300E94B909882364F089EC91E00E94C00008
S113094080EC0E94540085ED91E00E94C0000BC031
S113095089EC91E00E94C00080EC0E9454008BED71
S113096091E00E94C0008FEF91EE24E0815090400E
S11309702040E1F700C000000E94D60082E40E94FB
S113098050004FEF53EC89E0415050408040E1F774
S113099000C00000609130027091310280913202F7
S11309A0909133020E94D108DC01CB014AE066E455
S11309B072E00E942B0AF601EE0FFF1FCE0EDF1E1F
S11309C0F601EE0FFF1FEE0FFF1FE856FF4F80806A
S11309D09180A280B3802AE037ED43E25CE3C50155
S11309E0B4010E94ED07C0903002D0903102E09033
S11309F03202F0903302A70196010E94B9098823BC
S1130A0084F42AE037ED43E25CE3C501B4010E94BB
S1130A10EE079B01AC01C701B6010E94B909882306
S1130A2064F081EE91E00E94C00080EC0E945400CA
S1130A3085ED91E00E94C0000BC081EE91E00E9420
S1130A40C00080EC0E9454008BED91E00E94C00035
S1130A509FEF21EE44E0915020404040E1F700C078
S1130A6000000E94D60083E40E9450005FEF87E9F3
S1130A709AE3515080409040E1F700C0000088E0C4
S1130A8084BB8AB388608ABB0E947A036B017C01B1
S1130A9060933E0270933F02809340029093410220
S1130AA0F8013197EE0FFF1FEE0FFF1FEE0FFF1F30
S1130AB0E05AFF4F80809180A280B3802AE037ED16
S1130AC043E25CE3C501B4010E94ED079B01AC0164
S1130AD0C701B6010E945A08181684F42AE037EDBB
S1130AE043E25CE3C501B4010E94EE079B01AC0143
S1130AF0C701B6010E94B909882364F080EF91E030
S1130B000E94C00080EC0E94540085ED91E00E9498
S1130B10C0000BC080EF91E00E94C00080EC0E94F6
S1130B2054008BED91E00E94C0002FEF41EE54E0A1
S1130B30215040405040E1F700C000000E94D60020
S1130B406E960FB6F894DEBF0FBECDBFDF91CF9186
S1130B501F910F91FF90EF90DF90CF90BF90AF90D7
S1130B609F908F907F906F905F904F90089584B383
S1130B70846084BB089585B3846085BB80E58A95D1
S1130B80F1F785B38B7F85BB089580E090E0DC01AD
S1130B9005C09B990AC00196A11DB11D803C27E2A6
S1130BA0920729E0A207B105A0F3803C9742A9402F
S1130BB0B10579F11FBC82E08EBD1DBC1CBC80E078
S1130BC090E0DC010AC09B9B0FC02CB53DB52136DB
S1130BD03A4E50F40196A11DB11D803C27E29207C4
S1130BE029E0A207B10578F3803C9742A940B105FA
S1130BF099F08CB59DB5A0E0B0E01EBC81362AEE1C
S1130C009207A105B10558F4B695A79597958795D0
S1130C1008958FEF9FEF08958EEF9FEF08958EEF65
S1130C209FEF089517BA2FEF31EE44E02150304082
S1130C304040E1F700C000000E94B7050E94BB05D8
S1130C400E94C505BC0180E090E00E94070926E9E6
S1130C5033E44BE05DE30E94BE0920E030E040E075
S1130C605FE30E94BE0920E030E040E85FE30E94B9
S1130C70EE070E94D1082FEF36E741E021503040C3
S1130C804040E1F700C00000072E000C880B990BD0
S1130C900E94090908958F929F92AF92BF92CF92BA
S1130CA0DF92EF92FF920F931F93CF93DF93CDB711
S1130CB0DEB76E970FB6F894DEBF0FBECDBF8AE0E5
S1130CC0E0E7F1E0DE01119601900D928A95E1F7DB
S1130CD084E1EAE7F1E0DE011B9601900D928A952A
S1130CE0E1F70E94D6008EE891E00E94C00080ECFB
S1130CF00E9454008AE991E00E94C0000E948F0182
S1130D0020E030E016C0E1E0F0E0EC0FFD1FE20F60
S1130D10F31F908189130BC0F901EE0FFF1F41E00F
S1130D2050E04C0F5D1FE40FF51F028513852F5F04
S1130D303F4F2A3031053CF30E948F018D32E1F799
S1130D400830110574F60E94D60082EA91E00E94F0
S1130D50C00080EC0E94540083EB91E00E94C0002C
S1130D600E948F018D32E1F70E94D6008BEB91E057
S1130D700E94C0005FEF81EE94E0515080409040AB
S1130D80E1F700C000000E945F0260933A02709392
S1130D903B0280933C0290933D022FEF41EE54E0DE
S1130DA0215040405040E1F700C0000001501109BB
S1130DB0F801EE0FFF1FEE0FFF1FEE0FFF1FE05AAB
S1130DC0FF4F84809580A680B7802AE037ED43E208
S1130DD05CE3C501B4010E94ED07C0903A02D090D3
S1130DE03B02E0903C02F0903D02A70196010E9474
S1130DF0B909882384F42AE037ED43E25CE3C501B2
S1130E00B4010E94EE079B01AC01C701B6010E9428
S1130E10B909882364F089EC91E00E94C00080EC59
S1130E200E94540085ED91E00E94C0000BC089EC43
S1130E3091E00E94C00080EC0E9454008BED91E090
S1130E400E94C0008FEF91EE24E08150904020403A
S1130E50E1F700C000000E94D6000E9412066093D1
S1130E6042027093430280934402909345024FEFF1
S1130E7051EE84E0415050408040E1F700C0000052
S1130E80000F111F000F111F000F111FF801E05A6E
S1130E90FF4F80809180A280B3802AE037ED43E247
S1130EA05CE3C501B4010E94ED07C0904202D090FA
S1130EB04302E0904402F0904502A70196010E948B
S1130EC0B909882384F42AE037ED43E25CE3C501E1
S1130ED0B4010E94EE079B01AC01C701B6010E9458
S1130EE0B909882364F08CEF91E00E94C00080EC83
S1130EF00E94540085ED91E00E94C0000BC08CEF6D
S1130F0091E00E94C00080EC0E9454008BED91E0BF
S1130F100E94C0009FEF21EE44E0915020404040E9
S1130F20E1F700C000000E94D6006E960FB6F89458
S1130F30DEBF0FBECDBFDF91CF911F910F91FF9008
S1130F40EF90DF90CF90BF90AF909F908F900895D7
S1130F50CF93DF931ABA87E690E00E94490081B3E9
S1130F60806281BB82B38F7D82BB8FE087BB0E948E
S1130F70A00088E092E00E94C00080EC0E9454002F
S1130F8089E192E00E94C0000E948F01D82F0E9444
S1130F908F018D32E1F7CFECCD0FC23040F4D13365
S1130FA019F40E94B30312C00E944B060FC00E94A2
S1130FB0D60082E292E00E94C0002FEF80E792E028
S1130FC0215080409040E1F700C00000C23068F634
S1130FD080E090E0DF91CF9108955058BB27AA2775
S1130FE00E9405080C947F090E94710938F00E9440
S1130FF0780920F039F49F3F19F426F40C946E0913
S11310000EF4E095E7FB0C946809E92F0E9490091F
S113101058F3BA17620773078407950720F079F429
S1131020A6F50C94B2090EF4E0950B2EBA2FA02D60
S11310300B01B90190010C01CA01A0011124FF2781
S1131040591B99F0593F50F4503E68F11A16F0407C
S1131050A22F232F342F4427585FF3CF469537957B
S11310602795A795F0405395C9F77EF41F16BA0B40
S1131070620B730B840BBAF09150A1F0FF0FBB1FEE
S1131080661F771F881FC2F70EC0BA0F621F731F37
S1131090841F48F4879577956795B795F7959E3F94
S11310A008F0B0CF9395880F08F09927EE0F979525
S11310B0879508950E94440908F481E008950E94E8
S11310C073080C947F090E94780958F00E947109F2
S11310D040F029F45F3F29F00C94680951110C94F5
S11310E0B3090C946E090E94900968F39923B1F333
S11310F0552391F3951B550BBB27AA27621773073A
S1131100840738F09F5F5F4F220F331F441FAA1FCD
S1131110A9F335D00E2E3AF0E0E832D09150504089
S1131120E695001CCAF72BD0FE2F29D0660F771F37
S1131130881FBB1F261737074807AB07B0E809F01D
S1131140BB0B802DBF01FF2793585F4F3AF09E3FA2
S1131150510578F00C9468090C94B3095F3FE4F3EB
S1131160983ED4F3869577956795B795F7959F5FE5
S1131170C9F7880F911D9695879597F90895E1E031
S1131180660F771F881FBB1F621773078407BA0790
S113119020F0621B730B840BBA0BEE1F88F7E095EB
S11311A008950E94D8086894B1110C94B309089565
S11311B00E94980988F09F5798F0B92F9927B75142
S11311C0B0F0E1F0660F771F881F991F1AF0BA95E7
S11311D0C9F714C0B13091F00E94B209B1E008958A
S11311E00C94B209672F782F8827B85F39F0B93F7C
S11311F0CCF3869577956795B395D9F73EF490959A
S11312008095709561957F4F8F4F9F4F0895E89417
S113121009C097FB3EF490958095709561957F4F3A
S11312208F4F9F4F9923A9F0F92F96E9BB279395E8
S1131230F695879577956795B795F111F8CFFAF4F8
S1131240BB0F11F460FF1BC06F5F7F4F8F4F9F4F29
S113125016C0882311F096E911C0772321F09EE887
S1131260872F762F05C0662371F096E8862F70E0ED
S113127060E02AF09A95660F771F881FDAF7880FC7
S11312809695879597F90895990F0008550FAA0B1D
S1131290E0E8FEEF16161706E807F907C0F0121685
S11312A01306E407F50798F0621B730B840B950B88
S11312B039F40A2661F0232B242B252B21F40895DD
S11312C00A2609F4A140A6958FEF811D811D08957A
S11312D097F99F6780E870E060E008959FEF80ECE5
S11312E0089500240A941616170618060906089588
S11312F000240A9412161306140605060895092EEE
S11313000394000C11F4882352F0BB0F40F4BF2B5C
S113131011F460FF04C06F5F7F4F8F4F9F4F08959C
S113132057FD9058440F551F59F05F3F71F0479592
S1131330880F97FB991F61F09F3F79F08795089577
S1131340121613061406551FF2CF4695F1DF08C096
S1131350161617061806991FF1CF869571056105B3
S113136008940895E894BB2766277727CB0197F95B
S113137008950E94440908F48FEF08950E94D1094A
S11313800C947F090E94710938F00E94780920F0BA
S1131390952311F00C9468090C946E0911240C9493
S11313A0B3090E94900970F3959FC1F3950F50E023
S11313B0551F629FF001729FBB27F00DB11D639F03
S11313C0AA27F00DB11DAA1F649F6627B00DA11DA9
S11313D0661F829F2227B00DA11D621F739FB00D4F
S11313E0A11D621F839FA00D611D221F749F3327BF
S11313F0A00D611D231F849F600D211D822F762F58
S11314006A2F11249F5750409AF0F1F088234AF034
S1131410EE0FFF1FBB1F661F771F881F91505040A0
S1131420A9F79E3F510580F00C9468090C94B30908
S11314305F3FE4F3983ED4F3869577956795B79527
S1131440F795E7959F5FC1F7FE2B880F911D969541
S1131450879597F90895BB274A3031F4992322F4EC
S1131460BDE2909581959F4F0C94370ABB27FB01F1
S11314705527AA27880F991FAA1FA41710F0A41B89
S113148083955051B9F7A05DAA3308F0A95DA193E3
S1131490009779F7B111B1931192CB010C94500AD2
S11314A0DC01FC01672F71917723E1F7329704C0C7
S11314B07C916D9370836291AE17BF07C8F3089552
S10714C0F894FFCFCA
S11314C414AE473F9A99993F295C4F3F0000A03FCF
S11314D4E17A543F14AEA73FAE47613F3333B33F81
S11314E485EB913F14AE073F3D0A973FCDCC0C3FAB
S11314F40000A03F295C0F3F66662640CDCC0C3F1C
S1131504D578693D3333034185EB113F713D8A3E00
S11315143333034185EB113F713D8A3E66661641C0
S11315246666263F9A99193F333313416666263F0C
S11315349A99193FCDCCCC3F3333333FEC51383DEA
S1131544CDCCCC3F6666263F0AD7A33B3333334026
S1131554CDCC0C3F0AD7233E000008419A99193F89
S11315646666E63E000008416666263F6666E63E19
S11315740000F0406666E63E6666E63E9A993940A7
S1131584CDCC0C3F295C0F3E33330B416666263FBA
S1131594CDCCCC3E66660E416666263FCDCCCC3EB1
S11315A433333340CDCC0C3F0AD7233E333333405B
S11315B4CDCCCC3ECDCC4C3DFE00FD00FB00F70071
S11315C43738392F343536783132332D20303D2BAA
S11315D430313233343536373839000001000200F3
S11315E40300040005000600070008000900456E16
S11315F47465722073706F7274004E756D626572D7
S11316043A00496E7365727420616E642050726589
S1131614737300456E74657220210050726F6365A4
S11316247373696E672E2E2E00576569676874207C
S113163474657374004661696C210050617373218D
S113164400206469616D6574657220746573740047
S1131654426F756E636520746573740048656967C9
S1131664687420746573740028312D42616C6C2095
S1131674322D537469636B290053656C6563743A42
S1131684200057726F6E6720496E707574210000D4
S9030000FC
