:100000000C942A000C943C000C943C000C943C0092
:100010000C943C000C943C000C943C000C943C0070
:100020000C943C000C943C000C943C000C943C0060
:100030000C943C000C943C000C943C000C943C0050
:100040000C943C000C943C000C943C000C943C0040
:100050000C943C0011241FBECFE5D8E0DEBFCDBF1D
:1000600020E0A0E6B0E001C01D92A636B207E1F79D
:100070000E9420030C9454030C94000090BD89B995
:1000800088E18AB98EE880BD08955F9BFECF8CB170
:10009000089582E090E0909361008093600034C006
:1000A00083E088BB2FE788E391E0215080409040B7
:1000B000E1F700C0000082E088BB2FE788E391E011
:1000C000215080409040E1F700C0000081E088BBF3
:1000D0002FE788E391E0215080409040E1F700C095
:1000E000000018BA2FE788E391E02150804090404B
:1000F000E1F700C0000080916000909161000197DD
:100100009093610080936000809160009091610005
:10011000892B31F6089582E090E0909365008093FA
:10012000640087E090E020E030E04DC0873091052A
:1001300061F427E028BB2FE738E341E0215030404D
:100140004040E1F700C0000001978630910561F45E
:1001500026E028BB2FE738E341E021503040404003
:10016000E1F700C0000001978530910561F425E0BA
:1001700028BB2FE738E341E0215030404040E1F711
:1001800000C0000001978430910569F424E028BB89
:100190002FE738E341E0215030404040E1F700C014
:1001A0000000019702C087E090E020916400309148
:1001B00065002F5F3F4F309365002093640029B3A3
:1001C00029B321E030E0232B09F4B0CF089578C0A3
:1001D00080916200909163000497A1F484E088BB51
:1001E0002FE788E391E0215080409040E1F700C084
:1001F00000008091620090916300019690936300EB
:100200008093620080916200909163000597A1F451
:1002100085E088BB2FE788E391E021508040904043
:10022000E1F700C0000080916200909163000196A8
:1002300090936300809362008091620090916300CC
:100240000697A1F486E088BB2FE788E391E0215070
:1002500080409040E1F700C00000809162009091E2
:100260006300019690936300809362008091620026
:10027000909163000797A9F487E088BB2FE788E394
:1002800091E0215080409040E1F700C00000809153
:1002900062009091630001969093630080936200E6
:1002A00006C084E090E090936300809362008091A8
:1002B00064009091650001979093650080936400BD
:1002C0008091640090916500892B09F081CF089599
:1002D00082E090E0909361008093600034C018BA8F
:1002E0002FE788E391E0215080409040E1F700C083
:1002F000000081E088BB2FE788E391E02150804037
:100300009040E1F700C0000082E088BB2FE788E35F
:1003100091E0215080409040E1F700C0000083E070
:1003200088BB2FE788E391E0215080409040E1F7BF
:1003300000C000008091600090916100019790934F
:100340006100809360008091600090916100892B32
:1003500031F682E090E0909361008093600035C0B8
:100360008BE088BB2FE788E391E0215080409040EC
:10037000E1F700C000008AE088BB2FE788E391E046
:10038000215080409040E1F700C0000089E088BB28
:100390002FE788E391E0215080409040E1F700C0D2
:1003A000000088E088BB2FE788E391E0215080407F
:1003B0009040E1F700C000008091600090916100E2
:1003C000019790936100809360008091600090910C
:1003D0006100892B29F682E090E090936100809380
:1003E000600035C088E088BB2FE788E391E02150AA
:1003F00080409040E1F700C0000089E088BB2FE713
:1004000088E391E0215080409040E1F700C0000077
:100410008AE088BB2FE788E391E02150804090403C
:10042000E1F700C000008BE088BB2FE788E391E094
:10043000215080409040E1F700C0000080916000B2
:10044000909161000197909361008093600080918A
:10045000600090916100892B29F6089582E090E078
:10046000909361008093600035C08FE088BB2FEFD0
:1004700089EF90E0215080409040E1F700C00000FB
:100480008EE088BB2FEF89EF90E0215080409040B4
:10049000E1F700C000008DE088BB2FEF89EF90E00E
:1004A000215080409040E1F700C000008CE088BB04
:1004B0002FEF89EF90E0215080409040E1F700C09D
:1004C000000080916000909161000197909361001D
:1004D000809360008091600090916100892B29F6E3
:1004E000089582E090E0909361008093600049C09D
:1004F00080E888BB8FE39CE90197F1F700C000001A
:1005000080EC88BB8FE39CE90197F1F700C0000005
:1005100080E488BB8FE39CE90197F1F700C00000FD
:1005200080E688BB8FE39CE90197F1F700C00000EB
:1005300080E288BB8FE39CE90197F1F700C00000DF
:1005400080E388BB8FE39CE90197F1F700C00000CE
:1005500080E188BB8FE39CE90197F1F700C00000C0
:1005600080E988BB8FE39CE90197F1F700C00000A8
:100570008091600090916100019790936100809359
:1005800060008091600090916100892B09F0B0CFEC
:1005900082E090E0909361008093600049C080E128
:1005A00088BB8FE39CE90197F1F700C0000080E36E
:1005B00088BB8FE39CE90197F1F700C0000080E25F
:1005C00088BB8FE39CE90197F1F700C0000080E64B
:1005D00088BB8FE39CE90197F1F700C0000080E43D
:1005E00088BB8FE39CE90197F1F700C0000080EC25
:1005F00088BB8FE39CE90197F1F700C0000080E819
:1006000088BB8FE39CE90197F1F700C0000080E907
:1006100088BB8FE39CE90197F1F700C0000080914F
:100620006000909161000197909361008093600059
:100630008091600090916100892B09F0B0CF0895FE
:100640008FEF87BB1ABA87E690E00E943E000E94B7
:1006500045008134F1F70E9449000E944500823430
:10066000F1F70E948B000E9445008334F1F70E944D
:10067000E7008FE39CE90197F1F700C000000E94BA
:1006800068018FE39CE90197F1F700C000000E9428
:100690002E028FE39CE90197F1F700C000000E9451
:0C06A000710280E090E00895F894FFCF14
:00000001FF
